{
  "_format": "hh-sol-artifact-1",
  "contractName": "List",
  "sourceName": "contracts/List.sol",
  "abi": [
    {
      "anonymous": false,
      "inputs": [
        {
          "indexed": false,
          "internalType": "address",
          "name": "_address",
          "type": "address"
        },
        {
          "indexed": false,
          "internalType": "uint256",
          "name": "_id",
          "type": "uint256"
        },
        {
          "indexed": false,
          "internalType": "uint256",
          "name": "_price",
          "type": "uint256"
        }
      ],
      "name": "ItemAdded",
      "type": "event"
    },
    {
      "anonymous": false,
      "inputs": [
        {
          "indexed": false,
          "internalType": "string",
          "name": "_key",
          "type": "string"
        }
      ],
      "name": "ItemDeleted",
      "type": "event"
    },
    {
      "anonymous": false,
      "inputs": [
        {
          "indexed": false,
          "internalType": "address",
          "name": "_address",
          "type": "address"
        },
        {
          "indexed": false,
          "internalType": "uint256",
          "name": "_id",
          "type": "uint256"
        },
        {
          "indexed": false,
          "internalType": "uint256",
          "name": "_price",
          "type": "uint256"
        }
      ],
      "name": "ItemSold",
      "type": "event"
    },
    {
      "anonymous": false,
      "inputs": [
        {
          "indexed": true,
          "internalType": "address",
          "name": "previousOwner",
          "type": "address"
        },
        {
          "indexed": true,
          "internalType": "address",
          "name": "newOwner",
          "type": "address"
        }
      ],
      "name": "OwnershipTransferred",
      "type": "event"
    },
    {
      "anonymous": false,
      "inputs": [
        {
          "indexed": false,
          "internalType": "string",
          "name": "_key",
          "type": "string"
        },
        {
          "indexed": false,
          "internalType": "uint256",
          "name": "_price",
          "type": "uint256"
        }
      ],
      "name": "PriceChanged",
      "type": "event"
    },
    {
      "anonymous": false,
      "inputs": [
        {
          "indexed": false,
          "internalType": "address",
          "name": "_address",
          "type": "address"
        },
        {
          "indexed": false,
          "internalType": "uint256",
          "name": "_amount",
          "type": "uint256"
        }
      ],
      "name": "Received",
      "type": "event"
    },
    {
      "inputs": [
        {
          "internalType": "address",
          "name": "_address",
          "type": "address"
        },
        {
          "internalType": "uint256",
          "name": "_id",
          "type": "uint256"
        },
        {
          "internalType": "uint256",
          "name": "_price",
          "type": "uint256"
        }
      ],
      "name": "addItem",
      "outputs": [],
      "stateMutability": "nonpayable",
      "type": "function"
    },
    {
      "inputs": [
        {
          "internalType": "address",
          "name": "_address",
          "type": "address"
        },
        {
          "internalType": "uint256",
          "name": "_id",
          "type": "uint256"
        }
      ],
      "name": "buy",
      "outputs": [],
      "stateMutability": "payable",
      "type": "function"
    },
    {
      "inputs": [
        {
          "internalType": "string",
          "name": "_key",
          "type": "string"
        },
        {
          "internalType": "uint256",
          "name": "_price",
          "type": "uint256"
        }
      ],
      "name": "changePrice",
      "outputs": [],
      "stateMutability": "nonpayable",
      "type": "function"
    },
    {
      "inputs": [
        {
          "internalType": "string",
          "name": "_key",
          "type": "string"
        }
      ],
      "name": "deleteItem",
      "outputs": [],
      "stateMutability": "nonpayable",
      "type": "function"
    },
    {
      "inputs": [],
      "name": "owner",
      "outputs": [
        {
          "internalType": "address",
          "name": "",
          "type": "address"
        }
      ],
      "stateMutability": "view",
      "type": "function"
    },
    {
      "inputs": [],
      "name": "renounceOwnership",
      "outputs": [],
      "stateMutability": "nonpayable",
      "type": "function"
    },
    {
      "inputs": [
        {
          "internalType": "string",
          "name": "",
          "type": "string"
        }
      ],
      "name": "tokens",
      "outputs": [
        {
          "internalType": "uint256",
          "name": "",
          "type": "uint256"
        }
      ],
      "stateMutability": "view",
      "type": "function"
    },
    {
      "inputs": [
        {
          "internalType": "address",
          "name": "newOwner",
          "type": "address"
        }
      ],
      "name": "transferOwnership",
      "outputs": [],
      "stateMutability": "nonpayable",
      "type": "function"
    },
    {
      "inputs": [],
      "name": "withdraw",
      "outputs": [],
      "stateMutability": "payable",
      "type": "function"
    },
    {
      "stateMutability": "payable",
      "type": "receive"
    }
  ],
  "bytecode": "0x608060405234801561001057600080fd5b5061002d61002261003260201b60201c565b61003a60201b60201c565b6100fe565b600033905090565b60008060009054906101000a900473ffffffffffffffffffffffffffffffffffffffff169050816000806101000a81548173ffffffffffffffffffffffffffffffffffffffff021916908373ffffffffffffffffffffffffffffffffffffffff1602179055508173ffffffffffffffffffffffffffffffffffffffff168173ffffffffffffffffffffffffffffffffffffffff167f8be0079c531659141344cd1fd0a4f28419497f9722a3daafe3b4186f6b6457e060405160405180910390a35050565b6117e68061010d6000396000f3fe60806040526004361061008a5760003560e01c8063715018a611610059578063715018a6146101685780638da5cb5b1461017f578063c1b91dd9146101aa578063cce7ec13146101d3578063f2fde38b146101ef576100ca565b806304c2320b146100cf5780631fa195961461010c5780633ccfd60b146101355780636521f4371461013f576100ca565b366100ca577f88a5966d370b9919b20f3e2c13ff65706f196a4e32cc2c12bf57088f8852587433346040516100c0929190610db1565b60405180910390a1005b600080fd5b3480156100db57600080fd5b506100f660048036038101906100f19190610f34565b610218565b6040516101039190610f7d565b60405180910390f35b34801561011857600080fd5b50610133600480360381019061012e9190610fc4565b610246565b005b61013d610310565b005b34801561014b57600080fd5b5061016660048036038101906101619190610f34565b61035f565b005b34801561017457600080fd5b5061017d6103c3565b005b34801561018b57600080fd5b506101946103d7565b6040516101a19190611020565b60405180910390f35b3480156101b657600080fd5b506101d160048036038101906101cc9190611067565b610400565b005b6101ed60048036038101906101e891906110ba565b610532565b005b3480156101fb57600080fd5b50610216600480360381019061021191906110fa565b610798565b005b6001818051602081018201805184825260208301602085012081835280955050505050506000915090505481565b61024e61081c565b600060018360405161026091906111a1565b90815260200160405180910390205414156102b0576040517f08c379a00000000000000000000000000000000000000000000000000000000081526004016102a790611215565b60405180910390fd5b806001836040516102c191906111a1565b9081526020016040518091039020819055507f29ecd1e0988af1492e43256007437db411881757b3e6e808c9f04847b264178c828260405161030492919061126e565b60405180910390a15050565b61031861081c565b6103206103d7565b73ffffffffffffffffffffffffffffffffffffffff166108fc479081150290604051600060405180830381858888f1935050505061035d57600080fd5b565b61036761081c565b60018160405161037791906111a1565b9081526020016040518091039020600090557f1f00de1f7e71d4a23b36205335047319be4141963aa569e59105da6666382aef816040516103b8919061129e565b60405180910390a150565b6103cb61081c565b6103d5600061089a565b565b60008060009054906101000a900473ffffffffffffffffffffffffffffffffffffffff16905090565b61040861081c565b6000811161041557600080fd5b3073ffffffffffffffffffffffffffffffffffffffff168373ffffffffffffffffffffffffffffffffffffffff1663081812fc846040518263ffffffff1660e01b81526004016104659190610f7d565b602060405180830381865afa158015610482573d6000803e3d6000fd5b505050506040513d601f19601f820116820180604052508101906104a691906112d5565b73ffffffffffffffffffffffffffffffffffffffff16146104c657600080fd5b8060016104d3858561095e565b6040516104e091906111a1565b9081526020016040518091039020819055507f2ca052d1528c7374eb2dbaeecad56c46f2a51fa48de7916e8ecee5642859e97083838360405161052593929190611302565b60405180910390a1505050565b60006001610540848461095e565b60405161054d91906111a1565b908152602001604051809103902054905060008114156105a2576040517f08c379a000000000000000000000000000000000000000000000000000000000815260040161059990611215565b60405180910390fd5b348111156105e5576040517f08c379a00000000000000000000000000000000000000000000000000000000081526004016105dc90611385565b60405180910390fd5b600083905060008173ffffffffffffffffffffffffffffffffffffffff16636352211e856040518263ffffffff1660e01b81526004016106259190610f7d565b602060405180830381865afa158015610642573d6000803e3d6000fd5b505050506040513d601f19601f8201168201806040525081019061066691906112d5565b90506106706103d7565b73ffffffffffffffffffffffffffffffffffffffff163373ffffffffffffffffffffffffffffffffffffffff16141580156106d757508073ffffffffffffffffffffffffffffffffffffffff163373ffffffffffffffffffffffffffffffffffffffff1614155b6106e057600080fd5b8173ffffffffffffffffffffffffffffffffffffffff166342842e0e6107046103d7565b33876040518463ffffffff1660e01b8152600401610724939291906113a5565b600060405180830381600087803b15801561073e57600080fd5b505af1158015610752573d6000803e3d6000fd5b505050507f67b70c454298612e5de2836a2b7131dcfc7432501c85c6d9cb4771bfd7bfcd2d85853460405161078993929190611302565b60405180910390a15050505050565b6107a061081c565b600073ffffffffffffffffffffffffffffffffffffffff168173ffffffffffffffffffffffffffffffffffffffff161415610810576040517f08c379a00000000000000000000000000000000000000000000000000000000081526004016108079061144e565b60405180910390fd5b6108198161089a565b50565b6108246109b2565b73ffffffffffffffffffffffffffffffffffffffff166108426103d7565b73ffffffffffffffffffffffffffffffffffffffff1614610898576040517f08c379a000000000000000000000000000000000000000000000000000000000815260040161088f906114ba565b60405180910390fd5b565b60008060009054906101000a900473ffffffffffffffffffffffffffffffffffffffff169050816000806101000a81548173ffffffffffffffffffffffffffffffffffffffff021916908373ffffffffffffffffffffffffffffffffffffffff1602179055508173ffffffffffffffffffffffffffffffffffffffff168173ffffffffffffffffffffffffffffffffffffffff167f8be0079c531659141344cd1fd0a4f28419497f9722a3daafe3b4186f6b6457e060405160405180910390a35050565b60606109818373ffffffffffffffffffffffffffffffffffffffff1660146109ba565b61098a83610bf6565b60405160200161099b9291906114da565b604051602081830303815290604052905092915050565b600033905090565b6060600060028360026109cd919061152d565b6109d79190611587565b67ffffffffffffffff8111156109f0576109ef610e09565b5b6040519080825280601f01601f191660200182016040528015610a225781602001600182028036833780820191505090505b5090507f300000000000000000000000000000000000000000000000000000000000000081600081518110610a5a57610a596115dd565b5b60200101907effffffffffffffffffffffffffffffffffffffffffffffffffffffffffffff1916908160001a9053507f780000000000000000000000000000000000000000000000000000000000000081600181518110610abe57610abd6115dd565b5b60200101907effffffffffffffffffffffffffffffffffffffffffffffffffffffffffffff1916908160001a90535060006001846002610afe919061152d565b610b089190611587565b90505b6001811115610ba8577f3031323334353637383961626364656600000000000000000000000000000000600f861660108110610b4a57610b496115dd565b5b1a60f81b828281518110610b6157610b606115dd565b5b60200101907effffffffffffffffffffffffffffffffffffffffffffffffffffffffffffff1916908160001a905350600485901c945080610ba19061160c565b9050610b0b565b5060008414610bec576040517f08c379a0000000000000000000000000000000000000000000000000000000008152600401610be390611682565b60405180910390fd5b8091505092915050565b60606000821415610c3e576040518060400160405280600181526020017f30000000000000000000000000000000000000000000000000000000000000008152509050610d52565b600082905060005b60008214610c70578080610c59906116a2565b915050600a82610c69919061171a565b9150610c46565b60008167ffffffffffffffff811115610c8c57610c8b610e09565b5b6040519080825280601f01601f191660200182016040528015610cbe5781602001600182028036833780820191505090505b5090505b60008514610d4b57600182610cd7919061174b565b9150600a85610ce6919061177f565b6030610cf29190611587565b60f81b818381518110610d0857610d076115dd565b5b60200101907effffffffffffffffffffffffffffffffffffffffffffffffffffffffffffff1916908160001a905350600a85610d44919061171a565b9450610cc2565b8093505050505b919050565b600073ffffffffffffffffffffffffffffffffffffffff82169050919050565b6000610d8282610d57565b9050919050565b610d9281610d77565b82525050565b6000819050919050565b610dab81610d98565b82525050565b6000604082019050610dc66000830185610d89565b610dd36020830184610da2565b9392505050565b6000604051905090565b600080fd5b600080fd5b600080fd5b600080fd5b6000601f19601f8301169050919050565b7f4e487b7100000000000000000000000000000000000000000000000000000000600052604160045260246000fd5b610e4182610df8565b810181811067ffffffffffffffff82111715610e6057610e5f610e09565b5b80604052505050565b6000610e73610dda565b9050610e7f8282610e38565b919050565b600067ffffffffffffffff821115610e9f57610e9e610e09565b5b610ea882610df8565b9050602081019050919050565b82818337600083830152505050565b6000610ed7610ed284610e84565b610e69565b905082815260208101848484011115610ef357610ef2610df3565b5b610efe848285610eb5565b509392505050565b600082601f830112610f1b57610f1a610dee565b5b8135610f2b848260208601610ec4565b91505092915050565b600060208284031215610f4a57610f49610de4565b5b600082013567ffffffffffffffff811115610f6857610f67610de9565b5b610f7484828501610f06565b91505092915050565b6000602082019050610f926000830184610da2565b92915050565b610fa181610d98565b8114610fac57600080fd5b50565b600081359050610fbe81610f98565b92915050565b60008060408385031215610fdb57610fda610de4565b5b600083013567ffffffffffffffff811115610ff957610ff8610de9565b5b61100585828601610f06565b925050602061101685828601610faf565b9150509250929050565b60006020820190506110356000830184610d89565b92915050565b61104481610d77565b811461104f57600080fd5b50565b6000813590506110618161103b565b92915050565b6000806000606084860312156110805761107f610de4565b5b600061108e86828701611052565b935050602061109f86828701610faf565b92505060406110b086828701610faf565b9150509250925092565b600080604083850312156110d1576110d0610de4565b5b60006110df85828601611052565b92505060206110f085828601610faf565b9150509250929050565b6000602082840312156111105761110f610de4565b5b600061111e84828501611052565b91505092915050565b600081519050919050565b600081905092915050565b60005b8381101561115b578082015181840152602081019050611140565b8381111561116a576000848401525b50505050565b600061117b82611127565b6111858185611132565b935061119581856020860161113d565b80840191505092915050565b60006111ad8284611170565b915081905092915050565b600082825260208201905092915050565b7f746f6b656e206e6f7420666f756e640000000000000000000000000000000000600082015250565b60006111ff600f836111b8565b915061120a826111c9565b602082019050919050565b6000602082019050818103600083015261122e816111f2565b9050919050565b600061124082611127565b61124a81856111b8565b935061125a81856020860161113d565b61126381610df8565b840191505092915050565b600060408201905081810360008301526112888185611235565b90506112976020830184610da2565b9392505050565b600060208201905081810360008301526112b88184611235565b905092915050565b6000815190506112cf8161103b565b92915050565b6000602082840312156112eb576112ea610de4565b5b60006112f9848285016112c0565b91505092915050565b60006060820190506113176000830186610d89565b6113246020830185610da2565b6113316040830184610da2565b949350505050565b7f706179206d6f7265206574680000000000000000000000000000000000000000600082015250565b600061136f600c836111b8565b915061137a82611339565b602082019050919050565b6000602082019050818103600083015261139e81611362565b9050919050565b60006060820190506113ba6000830186610d89565b6113c76020830185610d89565b6113d46040830184610da2565b949350505050565b7f4f776e61626c653a206e6577206f776e657220697320746865207a65726f206160008201527f6464726573730000000000000000000000000000000000000000000000000000602082015250565b60006114386026836111b8565b9150611443826113dc565b604082019050919050565b600060208201905081810360008301526114678161142b565b9050919050565b7f4f776e61626c653a2063616c6c6572206973206e6f7420746865206f776e6572600082015250565b60006114a46020836111b8565b91506114af8261146e565b602082019050919050565b600060208201905081810360008301526114d381611497565b9050919050565b60006114e68285611170565b91506114f28284611170565b91508190509392505050565b7f4e487b7100000000000000000000000000000000000000000000000000000000600052601160045260246000fd5b600061153882610d98565b915061154383610d98565b9250817fffffffffffffffffffffffffffffffffffffffffffffffffffffffffffffffff048311821515161561157c5761157b6114fe565b5b828202905092915050565b600061159282610d98565b915061159d83610d98565b9250827fffffffffffffffffffffffffffffffffffffffffffffffffffffffffffffffff038211156115d2576115d16114fe565b5b828201905092915050565b7f4e487b7100000000000000000000000000000000000000000000000000000000600052603260045260246000fd5b600061161782610d98565b9150600082141561162b5761162a6114fe565b5b600182039050919050565b7f537472696e67733a20686578206c656e67746820696e73756666696369656e74600082015250565b600061166c6020836111b8565b915061167782611636565b602082019050919050565b6000602082019050818103600083015261169b8161165f565b9050919050565b60006116ad82610d98565b91507fffffffffffffffffffffffffffffffffffffffffffffffffffffffffffffffff8214156116e0576116df6114fe565b5b600182019050919050565b7f4e487b7100000000000000000000000000000000000000000000000000000000600052601260045260246000fd5b600061172582610d98565b915061173083610d98565b9250826117405761173f6116eb565b5b828204905092915050565b600061175682610d98565b915061176183610d98565b925082821015611774576117736114fe565b5b828203905092915050565b600061178a82610d98565b915061179583610d98565b9250826117a5576117a46116eb565b5b82820690509291505056fea2646970667358221220304a86907d1ac613cda9e283969ea88e65bd92437f140bcad78b07334f2e11cd64736f6c634300080c0033",
  "linkReferences": {},
  "deployedLinkReferences": {}
}