{
  "_format": "hh-sol-artifact-1",
  "contractName": "MyToken",
  "sourceName": "contracts/MyToken.sol",
  "abi": [
    {
      "inputs": [],
      "stateMutability": "nonpayable",
      "type": "constructor"
    },
    {
      "anonymous": false,
      "inputs": [
        {
          "indexed": true,
          "internalType": "address",
          "name": "owner",
          "type": "address"
        },
        {
          "indexed": true,
          "internalType": "address",
          "name": "approved",
          "type": "address"
        },
        {
          "indexed": true,
          "internalType": "uint256",
          "name": "tokenId",
          "type": "uint256"
        }
      ],
      "name": "Approval",
      "type": "event"
    },
    {
      "anonymous": false,
      "inputs": [
        {
          "indexed": true,
          "internalType": "address",
          "name": "owner",
          "type": "address"
        },
        {
          "indexed": true,
          "internalType": "address",
          "name": "operator",
          "type": "address"
        },
        {
          "indexed": false,
          "internalType": "bool",
          "name": "approved",
          "type": "bool"
        }
      ],
      "name": "ApprovalForAll",
      "type": "event"
    },
    {
      "anonymous": false,
      "inputs": [
        {
          "indexed": true,
          "internalType": "address",
          "name": "from",
          "type": "address"
        },
        {
          "indexed": true,
          "internalType": "address",
          "name": "to",
          "type": "address"
        },
        {
          "indexed": true,
          "internalType": "uint256",
          "name": "tokenId",
          "type": "uint256"
        }
      ],
      "name": "Transfer",
      "type": "event"
    },
    {
      "inputs": [
        {
          "internalType": "address",
          "name": "to",
          "type": "address"
        },
        {
          "internalType": "uint256",
          "name": "tokenId",
          "type": "uint256"
        }
      ],
      "name": "approve",
      "outputs": [],
      "stateMutability": "nonpayable",
      "type": "function"
    },
    {
      "inputs": [
        {
          "internalType": "address",
          "name": "owner",
          "type": "address"
        }
      ],
      "name": "balanceOf",
      "outputs": [
        {
          "internalType": "uint256",
          "name": "",
          "type": "uint256"
        }
      ],
      "stateMutability": "view",
      "type": "function"
    },
    {
      "inputs": [
        {
          "internalType": "uint256",
          "name": "tokenId",
          "type": "uint256"
        }
      ],
      "name": "getApproved",
      "outputs": [
        {
          "internalType": "address",
          "name": "",
          "type": "address"
        }
      ],
      "stateMutability": "view",
      "type": "function"
    },
    {
      "inputs": [
        {
          "internalType": "address",
          "name": "owner",
          "type": "address"
        },
        {
          "internalType": "address",
          "name": "operator",
          "type": "address"
        }
      ],
      "name": "isApprovedForAll",
      "outputs": [
        {
          "internalType": "bool",
          "name": "",
          "type": "bool"
        }
      ],
      "stateMutability": "view",
      "type": "function"
    },
    {
      "inputs": [],
      "name": "name",
      "outputs": [
        {
          "internalType": "string",
          "name": "",
          "type": "string"
        }
      ],
      "stateMutability": "view",
      "type": "function"
    },
    {
      "inputs": [],
      "name": "owner",
      "outputs": [
        {
          "internalType": "address",
          "name": "",
          "type": "address"
        }
      ],
      "stateMutability": "view",
      "type": "function"
    },
    {
      "inputs": [
        {
          "internalType": "uint256",
          "name": "tokenId",
          "type": "uint256"
        }
      ],
      "name": "ownerOf",
      "outputs": [
        {
          "internalType": "address",
          "name": "",
          "type": "address"
        }
      ],
      "stateMutability": "view",
      "type": "function"
    },
    {
      "inputs": [],
      "name": "safeMint",
      "outputs": [],
      "stateMutability": "nonpayable",
      "type": "function"
    },
    {
      "inputs": [
        {
          "internalType": "address",
          "name": "from",
          "type": "address"
        },
        {
          "internalType": "address",
          "name": "to",
          "type": "address"
        },
        {
          "internalType": "uint256",
          "name": "tokenId",
          "type": "uint256"
        }
      ],
      "name": "safeTransferFrom",
      "outputs": [],
      "stateMutability": "nonpayable",
      "type": "function"
    },
    {
      "inputs": [
        {
          "internalType": "address",
          "name": "from",
          "type": "address"
        },
        {
          "internalType": "address",
          "name": "to",
          "type": "address"
        },
        {
          "internalType": "uint256",
          "name": "tokenId",
          "type": "uint256"
        },
        {
          "internalType": "bytes",
          "name": "data",
          "type": "bytes"
        }
      ],
      "name": "safeTransferFrom",
      "outputs": [],
      "stateMutability": "nonpayable",
      "type": "function"
    },
    {
      "inputs": [
        {
          "internalType": "address",
          "name": "operator",
          "type": "address"
        },
        {
          "internalType": "bool",
          "name": "approved",
          "type": "bool"
        }
      ],
      "name": "setApprovalForAll",
      "outputs": [],
      "stateMutability": "nonpayable",
      "type": "function"
    },
    {
      "inputs": [
        {
          "internalType": "bytes4",
          "name": "interfaceId",
          "type": "bytes4"
        }
      ],
      "name": "supportsInterface",
      "outputs": [
        {
          "internalType": "bool",
          "name": "",
          "type": "bool"
        }
      ],
      "stateMutability": "view",
      "type": "function"
    },
    {
      "inputs": [],
      "name": "symbol",
      "outputs": [
        {
          "internalType": "string",
          "name": "",
          "type": "string"
        }
      ],
      "stateMutability": "view",
      "type": "function"
    },
    {
      "inputs": [
        {
          "internalType": "uint256",
          "name": "tokenId",
          "type": "uint256"
        }
      ],
      "name": "tokenURI",
      "outputs": [
        {
          "internalType": "string",
          "name": "",
          "type": "string"
        }
      ],
      "stateMutability": "view",
      "type": "function"
    },
    {
      "inputs": [
        {
          "internalType": "address",
          "name": "from",
          "type": "address"
        },
        {
          "internalType": "address",
          "name": "to",
          "type": "address"
        },
        {
          "internalType": "uint256",
          "name": "tokenId",
          "type": "uint256"
        }
      ],
      "name": "transferFrom",
      "outputs": [],
      "stateMutability": "nonpayable",
      "type": "function"
    }
  ],
  "bytecode": "0x60806040523480156200001157600080fd5b506040518060400160405280600781526020017f4d79546f6b656e000000000000000000000000000000000000000000000000008152506040518060400160405280600381526020017f4d544b0000000000000000000000000000000000000000000000000000000000815250816000908051906020019062000096929190620000f9565b508060019080519060200190620000af929190620000f9565b50505033600660006101000a81548173ffffffffffffffffffffffffffffffffffffffff021916908373ffffffffffffffffffffffffffffffffffffffff1602179055506200020e565b8280546200010790620001d8565b90600052602060002090601f0160209004810192826200012b576000855562000177565b82601f106200014657805160ff191683800117855562000177565b8280016001018555821562000177579182015b828111156200017657825182559160200191906001019062000159565b5b5090506200018691906200018a565b5090565b5b80821115620001a55760008160009055506001016200018b565b5090565b7f4e487b7100000000000000000000000000000000000000000000000000000000600052602260045260246000fd5b60006002820490506001821680620001f157607f821691505b60208210811415620002085762000207620001a9565b5b50919050565b6125c8806200021e6000396000f3fe608060405234801561001057600080fd5b50600436106100f55760003560e01c80636871ee4011610097578063a22cb46511610066578063a22cb46514610272578063b88d4fde1461028e578063c87b56dd146102aa578063e985e9c5146102da576100f5565b80636871ee40146101fc57806370a08231146102065780638da5cb5b1461023657806395d89b4114610254576100f5565b8063095ea7b3116100d3578063095ea7b31461017857806323b872dd1461019457806342842e0e146101b05780636352211e146101cc576100f5565b806301ffc9a7146100fa57806306fdde031461012a578063081812fc14610148575b600080fd5b610114600480360381019061010f9190611727565b61030a565b604051610121919061176f565b60405180910390f35b6101326103ec565b60405161013f9190611823565b60405180910390f35b610162600480360381019061015d919061187b565b61047e565b60405161016f91906118e9565b60405180910390f35b610192600480360381019061018d9190611930565b6104c4565b005b6101ae60048036038101906101a99190611970565b6105ec565b005b6101ca60048036038101906101c59190611970565b61064c565b005b6101e660048036038101906101e1919061187b565b61066c565b6040516101f391906118e9565b60405180910390f35b61020461071e565b005b610220600480360381019061021b91906119c3565b610743565b60405161022d91906119ff565b60405180910390f35b61023e6107fb565b60405161024b91906118e9565b60405180910390f35b61025c610821565b6040516102699190611823565b60405180910390f35b61028c60048036038101906102879190611a46565b6108b3565b005b6102a860048036038101906102a39190611bbb565b6108c9565b005b6102c460048036038101906102bf919061187b565b61092b565b6040516102d19190611823565b60405180910390f35b6102f460048036038101906102ef9190611c3e565b610993565b604051610301919061176f565b60405180910390f35b60007f80ac58cd000000000000000000000000000000000000000000000000000000007bffffffffffffffffffffffffffffffffffffffffffffffffffffffff1916827bffffffffffffffffffffffffffffffffffffffffffffffffffffffff191614806103d557507f5b5e139f000000000000000000000000000000000000000000000000000000007bffffffffffffffffffffffffffffffffffffffffffffffffffffffff1916827bffffffffffffffffffffffffffffffffffffffffffffffffffffffff1916145b806103e557506103e482610a27565b5b9050919050565b6060600080546103fb90611cad565b80601f016020809104026020016040519081016040528092919081815260200182805461042790611cad565b80156104745780601f1061044957610100808354040283529160200191610474565b820191906000526020600020905b81548152906001019060200180831161045757829003601f168201915b5050505050905090565b600061048982610a91565b6004600083815260200190815260200160002060009054906101000a900473ffffffffffffffffffffffffffffffffffffffff169050919050565b60006104cf8261066c565b90508073ffffffffffffffffffffffffffffffffffffffff168373ffffffffffffffffffffffffffffffffffffffff161415610540576040517f08c379a000000000000000000000000000000000000000000000000000000000815260040161053790611d51565b60405180910390fd5b61055061054b610adc565b610ae4565b8073ffffffffffffffffffffffffffffffffffffffff1661056f610adc565b73ffffffffffffffffffffffffffffffffffffffff16148061059e575061059d81610598610adc565b610993565b5b6105dd576040517f08c379a00000000000000000000000000000000000000000000000000000000081526004016105d490611de3565b60405180910390fd5b6105e78383610b7d565b505050565b6105fd6105f7610adc565b82610c36565b61063c576040517f08c379a000000000000000000000000000000000000000000000000000000000815260040161063390611e75565b60405180910390fd5b610647838383610ccb565b505050565b610667838383604051806020016040528060008152506108c9565b505050565b6000806002600084815260200190815260200160002060009054906101000a900473ffffffffffffffffffffffffffffffffffffffff169050600073ffffffffffffffffffffffffffffffffffffffff168173ffffffffffffffffffffffffffffffffffffffff161415610715576040517f08c379a000000000000000000000000000000000000000000000000000000000815260040161070c90611ee1565b60405180910390fd5b80915050919050565b600061072a6007610f32565b90506107366007610f40565b6107403382610f56565b50565b60008073ffffffffffffffffffffffffffffffffffffffff168273ffffffffffffffffffffffffffffffffffffffff1614156107b4576040517f08c379a00000000000000000000000000000000000000000000000000000000081526004016107ab90611f73565b60405180910390fd5b600360008373ffffffffffffffffffffffffffffffffffffffff1673ffffffffffffffffffffffffffffffffffffffff168152602001908152602001600020549050919050565b600660009054906101000a900473ffffffffffffffffffffffffffffffffffffffff1681565b60606001805461083090611cad565b80601f016020809104026020016040519081016040528092919081815260200182805461085c90611cad565b80156108a95780601f1061087e576101008083540402835291602001916108a9565b820191906000526020600020905b81548152906001019060200180831161088c57829003601f168201915b5050505050905090565b6108c56108be610adc565b8383611130565b5050565b6108da6108d4610adc565b83610c36565b610919576040517f08c379a000000000000000000000000000000000000000000000000000000000815260040161091090611e75565b60405180910390fd5b6109258484848461129d565b50505050565b606061093682610a91565b60006109406112f9565b90506000815111610960576040518060200160405280600081525061098b565b8061096a84611310565b60405160200161097b929190611fcf565b6040516020818303038152906040525b915050919050565b6000600560008473ffffffffffffffffffffffffffffffffffffffff1673ffffffffffffffffffffffffffffffffffffffff16815260200190815260200160002060008373ffffffffffffffffffffffffffffffffffffffff1673ffffffffffffffffffffffffffffffffffffffff16815260200190815260200160002060009054906101000a900460ff16905092915050565b60007f01ffc9a7000000000000000000000000000000000000000000000000000000007bffffffffffffffffffffffffffffffffffffffffffffffffffffffff1916827bffffffffffffffffffffffffffffffffffffffffffffffffffffffff1916149050919050565b610a9a81611471565b610ad9576040517f08c379a0000000000000000000000000000000000000000000000000000000008152600401610ad090611ee1565b60405180910390fd5b50565b600033905090565b610b7a81604051602401610af891906118e9565b6040516020818303038152906040527f2c2ecbc2000000000000000000000000000000000000000000000000000000007bffffffffffffffffffffffffffffffffffffffffffffffffffffffff19166020820180517bffffffffffffffffffffffffffffffffffffffffffffffffffffffff83818316178352505050506114dd565b50565b816004600083815260200190815260200160002060006101000a81548173ffffffffffffffffffffffffffffffffffffffff021916908373ffffffffffffffffffffffffffffffffffffffff160217905550808273ffffffffffffffffffffffffffffffffffffffff16610bf08361066c565b73ffffffffffffffffffffffffffffffffffffffff167f8c5be1e5ebec7d5bd14f71427d1e84f3dd0314c0f7b2291e5b200ac8c7c3b92560405160405180910390a45050565b600080610c428361066c565b90508073ffffffffffffffffffffffffffffffffffffffff168473ffffffffffffffffffffffffffffffffffffffff161480610c845750610c838185610993565b5b80610cc257508373ffffffffffffffffffffffffffffffffffffffff16610caa8461047e565b73ffffffffffffffffffffffffffffffffffffffff16145b91505092915050565b8273ffffffffffffffffffffffffffffffffffffffff16610ceb8261066c565b73ffffffffffffffffffffffffffffffffffffffff1614610d41576040517f08c379a0000000000000000000000000000000000000000000000000000000008152600401610d3890612065565b60405180910390fd5b600073ffffffffffffffffffffffffffffffffffffffff168273ffffffffffffffffffffffffffffffffffffffff161415610db1576040517f08c379a0000000000000000000000000000000000000000000000000000000008152600401610da8906120f7565b60405180910390fd5b610dbc838383611506565b610dc7600082610b7d565b6001600360008573ffffffffffffffffffffffffffffffffffffffff1673ffffffffffffffffffffffffffffffffffffffff1681526020019081526020016000206000828254610e179190612146565b925050819055506001600360008473ffffffffffffffffffffffffffffffffffffffff1673ffffffffffffffffffffffffffffffffffffffff1681526020019081526020016000206000828254610e6e919061217a565b92505081905550816002600083815260200190815260200160002060006101000a81548173ffffffffffffffffffffffffffffffffffffffff021916908373ffffffffffffffffffffffffffffffffffffffff160217905550808273ffffffffffffffffffffffffffffffffffffffff168473ffffffffffffffffffffffffffffffffffffffff167fddf252ad1be2c89b69c2b068fc378daa952ba7f163c4a11628f55a4df523b3ef60405160405180910390a4610f2d83838361150b565b505050565b600081600001549050919050565b6001816000016000828254019250508190555050565b600073ffffffffffffffffffffffffffffffffffffffff168273ffffffffffffffffffffffffffffffffffffffff161415610fc6576040517f08c379a0000000000000000000000000000000000000000000000000000000008152600401610fbd9061221c565b60405180910390fd5b610fcf81611471565b1561100f576040517f08c379a000000000000000000000000000000000000000000000000000000000815260040161100690612288565b60405180910390fd5b61101b60008383611506565b6001600360008473ffffffffffffffffffffffffffffffffffffffff1673ffffffffffffffffffffffffffffffffffffffff168152602001908152602001600020600082825461106b919061217a565b92505081905550816002600083815260200190815260200160002060006101000a81548173ffffffffffffffffffffffffffffffffffffffff021916908373ffffffffffffffffffffffffffffffffffffffff160217905550808273ffffffffffffffffffffffffffffffffffffffff16600073ffffffffffffffffffffffffffffffffffffffff167fddf252ad1be2c89b69c2b068fc378daa952ba7f163c4a11628f55a4df523b3ef60405160405180910390a461112c6000838361150b565b5050565b8173ffffffffffffffffffffffffffffffffffffffff168373ffffffffffffffffffffffffffffffffffffffff16141561119f576040517f08c379a0000000000000000000000000000000000000000000000000000000008152600401611196906122f4565b60405180910390fd5b80600560008573ffffffffffffffffffffffffffffffffffffffff1673ffffffffffffffffffffffffffffffffffffffff16815260200190815260200160002060008473ffffffffffffffffffffffffffffffffffffffff1673ffffffffffffffffffffffffffffffffffffffff16815260200190815260200160002060006101000a81548160ff0219169083151502179055508173ffffffffffffffffffffffffffffffffffffffff168373ffffffffffffffffffffffffffffffffffffffff167f17307eab39ab6107e8899845ad3d59bd9653f200f220920489ca2b5937696c3183604051611290919061176f565b60405180910390a3505050565b6112a8848484610ccb565b6112b484848484611510565b6112f3576040517f08c379a00000000000000000000000000000000000000000000000000000000081526004016112ea90612386565b60405180910390fd5b50505050565b606060405180602001604052806000815250905090565b60606000821415611358576040518060400160405280600181526020017f3000000000000000000000000000000000000000000000000000000000000000815250905061146c565b600082905060005b6000821461138a578080611373906123a6565b915050600a82611383919061241e565b9150611360565b60008167ffffffffffffffff8111156113a6576113a5611a90565b5b6040519080825280601f01601f1916602001820160405280156113d85781602001600182028036833780820191505090505b5090505b60008514611465576001826113f19190612146565b9150600a85611400919061244f565b603061140c919061217a565b60f81b81838151811061142257611421612480565b5b60200101907effffffffffffffffffffffffffffffffffffffffffffffffffffffffffffff1916908160001a905350600a8561145e919061241e565b94506113dc565b8093505050505b919050565b60008073ffffffffffffffffffffffffffffffffffffffff166002600084815260200190815260200160002060009054906101000a900473ffffffffffffffffffffffffffffffffffffffff1673ffffffffffffffffffffffffffffffffffffffff1614159050919050565b60008151905060006a636f6e736f6c652e6c6f679050602083016000808483855afa5050505050565b505050565b505050565b60006115318473ffffffffffffffffffffffffffffffffffffffff16611698565b1561168b578373ffffffffffffffffffffffffffffffffffffffff1663150b7a0261155a610adc565b8786866040518563ffffffff1660e01b815260040161157c9493929190612504565b6020604051808303816000875af19250505080156115b857506040513d601f19601f820116820180604052508101906115b59190612565565b60015b61163b573d80600081146115e8576040519150601f19603f3d011682016040523d82523d6000602084013e6115ed565b606091505b50600081511415611633576040517f08c379a000000000000000000000000000000000000000000000000000000000815260040161162a90612386565b60405180910390fd5b805181602001fd5b63150b7a0260e01b7bffffffffffffffffffffffffffffffffffffffffffffffffffffffff1916817bffffffffffffffffffffffffffffffffffffffffffffffffffffffff191614915050611690565b600190505b949350505050565b6000808273ffffffffffffffffffffffffffffffffffffffff163b119050919050565b6000604051905090565b600080fd5b600080fd5b60007fffffffff0000000000000000000000000000000000000000000000000000000082169050919050565b611704816116cf565b811461170f57600080fd5b50565b600081359050611721816116fb565b92915050565b60006020828403121561173d5761173c6116c5565b5b600061174b84828501611712565b91505092915050565b60008115159050919050565b61176981611754565b82525050565b60006020820190506117846000830184611760565b92915050565b600081519050919050565b600082825260208201905092915050565b60005b838110156117c45780820151818401526020810190506117a9565b838111156117d3576000848401525b50505050565b6000601f19601f8301169050919050565b60006117f58261178a565b6117ff8185611795565b935061180f8185602086016117a6565b611818816117d9565b840191505092915050565b6000602082019050818103600083015261183d81846117ea565b905092915050565b6000819050919050565b61185881611845565b811461186357600080fd5b50565b6000813590506118758161184f565b92915050565b600060208284031215611891576118906116c5565b5b600061189f84828501611866565b91505092915050565b600073ffffffffffffffffffffffffffffffffffffffff82169050919050565b60006118d3826118a8565b9050919050565b6118e3816118c8565b82525050565b60006020820190506118fe60008301846118da565b92915050565b61190d816118c8565b811461191857600080fd5b50565b60008135905061192a81611904565b92915050565b60008060408385031215611947576119466116c5565b5b60006119558582860161191b565b925050602061196685828601611866565b9150509250929050565b600080600060608486031215611989576119886116c5565b5b60006119978682870161191b565b93505060206119a88682870161191b565b92505060406119b986828701611866565b9150509250925092565b6000602082840312156119d9576119d86116c5565b5b60006119e78482850161191b565b91505092915050565b6119f981611845565b82525050565b6000602082019050611a1460008301846119f0565b92915050565b611a2381611754565b8114611a2e57600080fd5b50565b600081359050611a4081611a1a565b92915050565b60008060408385031215611a5d57611a5c6116c5565b5b6000611a6b8582860161191b565b9250506020611a7c85828601611a31565b9150509250929050565b600080fd5b600080fd5b7f4e487b7100000000000000000000000000000000000000000000000000000000600052604160045260246000fd5b611ac8826117d9565b810181811067ffffffffffffffff82111715611ae757611ae6611a90565b5b80604052505050565b6000611afa6116bb565b9050611b068282611abf565b919050565b600067ffffffffffffffff821115611b2657611b25611a90565b5b611b2f826117d9565b9050602081019050919050565b82818337600083830152505050565b6000611b5e611b5984611b0b565b611af0565b905082815260208101848484011115611b7a57611b79611a8b565b5b611b85848285611b3c565b509392505050565b600082601f830112611ba257611ba1611a86565b5b8135611bb2848260208601611b4b565b91505092915050565b60008060008060808587031215611bd557611bd46116c5565b5b6000611be38782880161191b565b9450506020611bf48782880161191b565b9350506040611c0587828801611866565b925050606085013567ffffffffffffffff811115611c2657611c256116ca565b5b611c3287828801611b8d565b91505092959194509250565b60008060408385031215611c5557611c546116c5565b5b6000611c638582860161191b565b9250506020611c748582860161191b565b9150509250929050565b7f4e487b7100000000000000000000000000000000000000000000000000000000600052602260045260246000fd5b60006002820490506001821680611cc557607f821691505b60208210811415611cd957611cd8611c7e565b5b50919050565b7f4552433732313a20617070726f76616c20746f2063757272656e74206f776e6560008201527f7200000000000000000000000000000000000000000000000000000000000000602082015250565b6000611d3b602183611795565b9150611d4682611cdf565b604082019050919050565b60006020820190508181036000830152611d6a81611d2e565b9050919050565b7f4552433732313a20617070726f76652063616c6c6572206973206e6f7420746f60008201527f6b656e206f776e6572206e6f7220617070726f76656420666f7220616c6c0000602082015250565b6000611dcd603e83611795565b9150611dd882611d71565b604082019050919050565b60006020820190508181036000830152611dfc81611dc0565b9050919050565b7f4552433732313a2063616c6c6572206973206e6f7420746f6b656e206f776e6560008201527f72206e6f7220617070726f766564000000000000000000000000000000000000602082015250565b6000611e5f602e83611795565b9150611e6a82611e03565b604082019050919050565b60006020820190508181036000830152611e8e81611e52565b9050919050565b7f4552433732313a20696e76616c696420746f6b656e2049440000000000000000600082015250565b6000611ecb601883611795565b9150611ed682611e95565b602082019050919050565b60006020820190508181036000830152611efa81611ebe565b9050919050565b7f4552433732313a2061646472657373207a65726f206973206e6f74206120766160008201527f6c6964206f776e65720000000000000000000000000000000000000000000000602082015250565b6000611f5d602983611795565b9150611f6882611f01565b604082019050919050565b60006020820190508181036000830152611f8c81611f50565b9050919050565b600081905092915050565b6000611fa98261178a565b611fb38185611f93565b9350611fc38185602086016117a6565b80840191505092915050565b6000611fdb8285611f9e565b9150611fe78284611f9e565b91508190509392505050565b7f4552433732313a207472616e736665722066726f6d20696e636f72726563742060008201527f6f776e6572000000000000000000000000000000000000000000000000000000602082015250565b600061204f602583611795565b915061205a82611ff3565b604082019050919050565b6000602082019050818103600083015261207e81612042565b9050919050565b7f4552433732313a207472616e7366657220746f20746865207a65726f2061646460008201527f7265737300000000000000000000000000000000000000000000000000000000602082015250565b60006120e1602483611795565b91506120ec82612085565b604082019050919050565b60006020820190508181036000830152612110816120d4565b9050919050565b7f4e487b7100000000000000000000000000000000000000000000000000000000600052601160045260246000fd5b600061215182611845565b915061215c83611845565b92508282101561216f5761216e612117565b5b828203905092915050565b600061218582611845565b915061219083611845565b9250827fffffffffffffffffffffffffffffffffffffffffffffffffffffffffffffffff038211156121c5576121c4612117565b5b828201905092915050565b7f4552433732313a206d696e7420746f20746865207a65726f2061646472657373600082015250565b6000612206602083611795565b9150612211826121d0565b602082019050919050565b60006020820190508181036000830152612235816121f9565b9050919050565b7f4552433732313a20746f6b656e20616c7265616479206d696e74656400000000600082015250565b6000612272601c83611795565b915061227d8261223c565b602082019050919050565b600060208201905081810360008301526122a181612265565b9050919050565b7f4552433732313a20617070726f766520746f2063616c6c657200000000000000600082015250565b60006122de601983611795565b91506122e9826122a8565b602082019050919050565b6000602082019050818103600083015261230d816122d1565b9050919050565b7f4552433732313a207472616e7366657220746f206e6f6e20455243373231526560008201527f63656976657220696d706c656d656e7465720000000000000000000000000000602082015250565b6000612370603283611795565b915061237b82612314565b604082019050919050565b6000602082019050818103600083015261239f81612363565b9050919050565b60006123b182611845565b91507fffffffffffffffffffffffffffffffffffffffffffffffffffffffffffffffff8214156123e4576123e3612117565b5b600182019050919050565b7f4e487b7100000000000000000000000000000000000000000000000000000000600052601260045260246000fd5b600061242982611845565b915061243483611845565b925082612444576124436123ef565b5b828204905092915050565b600061245a82611845565b915061246583611845565b925082612475576124746123ef565b5b828206905092915050565b7f4e487b7100000000000000000000000000000000000000000000000000000000600052603260045260246000fd5b600081519050919050565b600082825260208201905092915050565b60006124d6826124af565b6124e081856124ba565b93506124f08185602086016117a6565b6124f9816117d9565b840191505092915050565b600060808201905061251960008301876118da565b61252660208301866118da565b61253360408301856119f0565b818103606083015261254581846124cb565b905095945050505050565b60008151905061255f816116fb565b92915050565b60006020828403121561257b5761257a6116c5565b5b600061258984828501612550565b9150509291505056fea2646970667358221220cc288a11e16dd387c90c44dbd244a36c34053750784bd26da99a3fc272b5f26264736f6c634300080c0033",
  "linkReferences": {},
  "deployedLinkReferences": {}
}